{
  "_format": "hh-sol-artifact-1",
  "contractName": "Lottery",
  "sourceName": "contracts/Lottery.sol",
  "abi": [
    {
      "inputs": [],
      "stateMutability": "nonpayable",
      "type": "constructor"
    },
    {
      "anonymous": false,
      "inputs": [],
      "name": "VRF",
      "type": "event"
    },
    {
      "inputs": [],
      "name": "counter",
      "outputs": [
        {
          "internalType": "uint256",
          "name": "",
          "type": "uint256"
        }
      ],
      "stateMutability": "view",
      "type": "function"
    },
    {
      "inputs": [
        {
          "internalType": "uint256",
          "name": "_random",
          "type": "uint256"
        }
      ],
      "name": "fullfillRandomness",
      "outputs": [],
      "stateMutability": "nonpayable",
      "type": "function"
    },
    {
      "inputs": [],
      "name": "oracle",
      "outputs": [
        {
          "internalType": "address",
          "name": "",
          "type": "address"
        }
      ],
      "stateMutability": "view",
      "type": "function"
    },
    {
      "inputs": [],
      "name": "owner",
      "outputs": [
        {
          "internalType": "address",
          "name": "",
          "type": "address"
        }
      ],
      "stateMutability": "view",
      "type": "function"
    },
    {
      "inputs": [],
      "name": "play",
      "outputs": [],
      "stateMutability": "payable",
      "type": "function"
    },
    {
      "inputs": [
        {
          "internalType": "uint256",
          "name": "",
          "type": "uint256"
        }
      ],
      "name": "player",
      "outputs": [
        {
          "internalType": "address",
          "name": "",
          "type": "address"
        }
      ],
      "stateMutability": "view",
      "type": "function"
    },
    {
      "inputs": [],
      "name": "price",
      "outputs": [
        {
          "internalType": "uint256",
          "name": "",
          "type": "uint256"
        }
      ],
      "stateMutability": "view",
      "type": "function"
    },
    {
      "inputs": [
        {
          "internalType": "address",
          "name": "_oracle",
          "type": "address"
        }
      ],
      "name": "setOracle",
      "outputs": [],
      "stateMutability": "nonpayable",
      "type": "function"
    },
    {
      "inputs": [],
      "name": "winner",
      "outputs": [
        {
          "internalType": "address",
          "name": "",
          "type": "address"
        }
      ],
      "stateMutability": "view",
      "type": "function"
    }
  ],
  "bytecode": "0x6080604052348015600f57600080fd5b5033600360006101000a81548173ffffffffffffffffffffffffffffffffffffffff021916908373ffffffffffffffffffffffffffffffffffffffff160217905550610837806100606000396000f3fe6080604052600436106100865760003560e01c80638da5cb5b116100595780638da5cb5b1461013357806393e84cd91461015e5780639e0551c614610168578063a035b1fe146101a5578063dfbf53ae146101d057610086565b806361bc221a1461008b5780637adbf973146100b65780637dc0d1d0146100df57806389360b861461010a575b600080fd5b34801561009757600080fd5b506100a06101fb565b6040516100ad9190610573565b60405180910390f35b3480156100c257600080fd5b506100dd60048036038101906100d891906105f1565b610201565b005b3480156100eb57600080fd5b506100f46102d5565b604051610101919061062d565b60405180910390f35b34801561011657600080fd5b50610131600480360381019061012c9190610674565b6102fb565b005b34801561013f57600080fd5b506101486103bf565b604051610155919061062d565b60405180910390f35b6101666103e5565b005b34801561017457600080fd5b5061018f600480360381019061018a9190610674565b6104fb565b60405161019c919061062d565b60405180910390f35b3480156101b157600080fd5b506101ba61052e565b6040516101c79190610573565b60405180910390f35b3480156101dc57600080fd5b506101e5610534565b6040516101f2919061062d565b60405180910390f35b60005481565b600360009054906101000a900473ffffffffffffffffffffffffffffffffffffffff1673ffffffffffffffffffffffffffffffffffffffff163373ffffffffffffffffffffffffffffffffffffffff1614610291576040517f08c379a0000000000000000000000000000000000000000000000000000000008152600401610288906106fe565b60405180910390fd5b80600260006101000a81548173ffffffffffffffffffffffffffffffffffffffff021916908373ffffffffffffffffffffffffffffffffffffffff16021790555050565b600260009054906101000a900473ffffffffffffffffffffffffffffffffffffffff1681565b60006005600083815260200190815260200160002060009054906101000a900473ffffffffffffffffffffffffffffffffffffffff1690508073ffffffffffffffffffffffffffffffffffffffff166108fc479081150290604051600060405180830381858888f19350505050158015610379573d6000803e3d6000fd5b5080600460006101000a81548173ffffffffffffffffffffffffffffffffffffffff021916908373ffffffffffffffffffffffffffffffffffffffff1602179055505050565b600360009054906101000a900473ffffffffffffffffffffffffffffffffffffffff1681565b34600154811461042a576040517f08c379a00000000000000000000000000000000000000000000000000000000081526004016104219061076a565b60405180910390fd5b600080600081548092919061043e906107b9565b919050559050336005600083815260200190815260200160002060006101000a81548173ffffffffffffffffffffffffffffffffffffffff021916908373ffffffffffffffffffffffffffffffffffffffff1602179055507fa126285b9233810f97012a571e6bea294198b896ccbd342b606ce184594de8a860405160405180910390a1606381036104f7577fa126285b9233810f97012a571e6bea294198b896ccbd342b606ce184594de8a860405160405180910390a15b5050565b60056020528060005260406000206000915054906101000a900473ffffffffffffffffffffffffffffffffffffffff1681565b60015481565b600460009054906101000a900473ffffffffffffffffffffffffffffffffffffffff1681565b6000819050919050565b61056d8161055a565b82525050565b60006020820190506105886000830184610564565b92915050565b600080fd5b600073ffffffffffffffffffffffffffffffffffffffff82169050919050565b60006105be82610593565b9050919050565b6105ce816105b3565b81146105d957600080fd5b50565b6000813590506105eb816105c5565b92915050565b6000602082840312156106075761060661058e565b5b6000610615848285016105dc565b91505092915050565b610627816105b3565b82525050565b6000602082019050610642600083018461061e565b92915050565b6106518161055a565b811461065c57600080fd5b50565b60008135905061066e81610648565b92915050565b60006020828403121561068a5761068961058e565b5b60006106988482850161065f565b91505092915050565b600082825260208201905092915050565b7f4e6f205065726d697373696f6e73000000000000000000000000000000000000600082015250565b60006106e8600e836106a1565b91506106f3826106b2565b602082019050919050565b60006020820190508181036000830152610717816106db565b9050919050565b7f496e73756666696369656e742046756e64730000000000000000000000000000600082015250565b60006107546012836106a1565b915061075f8261071e565b602082019050919050565b6000602082019050818103600083015261078381610747565b9050919050565b7f4e487b7100000000000000000000000000000000000000000000000000000000600052601160045260246000fd5b60006107c48261055a565b91507fffffffffffffffffffffffffffffffffffffffffffffffffffffffffffffffff82036107f6576107f561078a565b5b60018201905091905056fea264697066735822122027577ad553446e70eddbeb6680beec2e21e68fa1faa21e020097a672754a68c264736f6c634300081c0033",
  "linkReferences": {},
  "deployedLinkReferences": {}
}